:020000040800F2
:1000000000080020412100089D2000089F200008D2
:1000100000000000000000000000000000000000E0
:10002000000000000000000000000000A120000807
:100030000000000000000000A3200008A520000828
:10004000C1210008C1210008C1210008C121000808
:10005000C1210008B1200008BB200008CB20000807
:1000600000000000C1210008C1210008C1210008D2
:10007000C1210008C121000800000000D5200008AF
:100080000000000000000000000000000000000070
:10009000C12100080000000000000000C12100088C
:1000A00000000000C1210008000000000000000066
:1000B000C1210008C121000800000000000000006C
:1000C00010B5064C2378002B07D1054B002B02D02E
:1000D000044800E000BF0123237010BD040000208D
:1000E000000000000C220008044B10B5002B03D0C8
:1000F0000349044800E000BF10BDC04600000000F6
:10010000080000200C220008002243088B4274D310
:1001100003098B425FD3030A8B4244D3030B8B4208
:1001200028D3030C8B420DD3FF22090212BA030C11
:100130008B4202D31212090265D0030B8B4219D3F2
:1001400000E0090AC30B8B4201D3CB03C01A524112
:10015000830B8B4201D38B03C01A5241430B8B425A
:1001600001D34B03C01A5241030B8B4201D30B0343
:10017000C01A5241C30A8B4201D3CB02C01A52416A
:10018000830A8B4201D38B02C01A5241430A8B422D
:1001900001D34B02C01A5241030A8B4201D30B0216
:1001A000C01A5241CDD2C3098B4201D3CB01C01A30
:1001B000524183098B4201D38B01C01A524143093A
:1001C0008B4201D34B01C01A524103098B4201D328
:1001D0000B01C01A5241C3088B4201D3CB00C01A95
:1001E000524183088B4201D38B00C01A524143080D
:1001F0008B4201D34B00C01A5241411A00D2014632
:10020000524110467047FFE701B5002000F006F8A4
:1002100002BDC0460029F7D076E770477047C04658
:10022000002B11D1002A0FD1002900D1002802D0C3
:100230000021C943081C07B4024802A140180290DB
:1002400003BDC046D9FFFFFF03B4684601B502985D
:1002500000F006F8019B9E4602B00CBC7047C046F9
:10026000F0B54F464646D646C0B5040082B00D00F4
:10027000914698468B422FD82CD04146484600F0F4
:10028000B1F829000600200000F0ACF8331A9C46B3
:10029000203B9A4600D576E04B46524693401F00DD
:1002A0004B46624693401E00AF4228D825D05346A5
:1002B000A41BBD41002B00DA7BE00022002300924A
:1002C00001930123524693400193012362469340D8
:1002D000009318E08242D0D90022002300920193BB
:1002E0000A9B002B01D01C605D600098019902B050
:1002F0001CBC90469946A246F0BDA342D7D9002225
:100300000023009201936346002BE9D0FB07984637
:10031000414672080A437B0866460EE0AB4201D1B3
:10032000A2420CD8A41A9D41012024196D4100213C
:10033000013E24184D41002E06D0AB42EED9013EBD
:1003400024196D41002EF8D10098019953460019E7
:100350006941002B23DB2B005246D3402A00644620
:10036000E2401C0053461500002B2DDB26005746AB
:10037000BE40330026006746BE403200801A9941D5
:1003800000900191ACE7624620239B1A4A46DA406E
:100390006146130042468A4017001F4380E76246C9
:1003A00020239B1A2A0066469A402300F3401343F9
:1003B000D4E76246202300219B1A0022009101927B
:1003C0000122DA40019280E72023624626009B1A30
:1003D000DE402F00B0466646B74046463B003343FA
:1003E000C8E7C04610B5002903D100F007F8203057
:1003F00002E0081C00F002F810BDC0461C210123D9
:100400001B04984201D3000C10391B0A984201D3F7
:10041000000A08391B09984201D30009043902A2D5
:10042000105C40187047C04604030202010101013C
:10043000000000000000000010B50400094B18681F
:10044000FA218900FFF760FE00F078F8002801D05B
:10045000012010BD013000222100404200F034F89C
:100460000020F6E70000002010B5084A136840217C
:100470000B4313600020FFF7DFFF041E02D00124AE
:10048000200010BD01F082FDFAE7C04600200240C6
:10049000024A1368013313607047C04624000020ED
:1004A000014B18687047C0462400002070B5040056
:1004B000FFF7F6FF0500631C00D00134FFF7F0FFE3
:1004C000401BA042FAD370BD70B5002811DB840830
:1004D000134DC034A400625903231840C000FC33FC
:1004E0001E008640B24389010B4083401343635191
:1004F00070BDC0B20F220240083A92080632920044
:10050000084BD3185D6803242040C000FF2214006C
:100510008440A54389010A4082402A435A60E7E7A4
:1005200000E100E000ED00E01F2318401E3B834087
:10053000014A13607047C04600E100E001380A4BF1
:1005400098420FD8094A50600948036A1B021B0AE7
:10055000C02109060B430362002393600733136035
:10056000002070470120FCE7FFFFFF0010E000E0E3
:1005700000ED00E0042805D0054A136804218B43F0
:1005800013607047024A136804210B431360F8E7B5
:1005900010E000E0704710B5FFF7FCFF10BD000051
:1005A000F0B5C64600B5002378E085685F000326F5
:1005B000BE40B5432E00CD68BD40354385604568DB
:1005C000A5434A681609012434409C402C434460EA
:1005D00007685E0003242500B540ED432F404A68BC
:1005E0001440B4403C430460C46825408C68B44067
:1005F0002C43C4604A68D2004FD5414D6C6B012634
:1006000034436C639C08A51CAD003E4EAF590325D6
:100610001D40AD000F26AE40B743A026F605B04200
:1006200067D0394EB04266D0384EB0425FD0062611
:10063000AE4035003D430234A400324EA551344C47
:1006400025684246D4432E0026404A68D20302D58C
:10065000424615432E002E4D2E606D682E0026401A
:100660004A68920302D5424615432E00284D6E601B
:10067000AD682E0026404A68D20202D54246154394
:100680002E00234DAE60ED682C404A68920202D5E0
:1006900042462A4314001E4AD46001330A681400FB
:1006A000DC402AD001249C4022409046F5D04D6881
:1006B000022D01D0122D0ED1DD080835AD002F58C6
:1006C00007261E40B6000F22B24097430A69B24087
:1006D00016003E432E504D686E1E012E00D864E772
:1006E000112D00D161E7122D00D071E75DE70226E0
:1006F0009EE700269CE701269AE704BC9046F0BDE1
:1007000000100240000001400004005000080050AA
:1007100000040140002A01D1816270478161FCE739
:1007200010B5054B5B69184200D110BD024B5861F2
:1007300001F0D6FAF9E7C0460004014010B5264B97
:10074000D9680C230B40082B42D00C2B11D0042B62
:1007500009D0214B5A68520B0723134001338020E4
:100760000002984010BD1C4B1B68DB0632D51B48AD
:10077000F8E78A0C0F231340194AD05C890D032235
:1007800011400131144BDB68DB030DD4124B1B68A5
:10079000DB0613D54201121A93019B1ADB001B18CA
:1007A0001802FFF7B1FCDDE74201121A93019B1A10
:1007B000DB001B181802FFF7A7FCD3E74201121A4F
:1007C00093019B1ADB001B189802FFF79DFCC9E7F9
:1007D0000248C7E70348C5E70010024000093D0092
:1007E0006C2200080024F400F0B583B0041E00D190
:1007F00063E2C44BDA680C251540DA68802676027D
:1008000016400368DB0736D5082D2CD00C2D28D0D8
:10081000636880225202934255D0A022D2029342B2
:1008200058D0B84B1A68B8490A401A601A68802133
:1008300049020A400192019A1A68B4490A401A60B2
:100840006368002B52D0FFF72BFE0700AD4B1B68EF
:100850009B0310D4FFF724FEC01B6428F6D90320A5
:100860002CE2002ED4D0A74B1B689B0303D56368F2
:10087000002B00D124E223689B076CD5E3689A061D
:1008800005D5A048026820210A4302608B43042D4D
:100890003CD00C2D38D0002B00D1AEE099490A682D
:1008A0000920824313430B60FFF7FAFD0600954BC6
:1008B0001B685B0700D597E0FFF7F2FD801B02285D
:1008C000F5D90320FAE18F4A116880235B020B43BC
:1008D0001360B5E78B4B19688022D2020A431A6075
:1008E0001968802252020A431A60A9E7FFF7D8FD6F
:1008F0000700844B1B689B03BDD5FFF7D1FDC01BD0
:100900006428F6D90320D9E1002EC4D17D4A1268AB
:10091000520702D5002B00D1D4E17A4E72687C498F
:100920000A40216909020A437260326809218A4338
:1009300013433360FFF702FFF26812090F231340DD
:10094000744AD35CD840744B18600020FFF774FDE4
:10095000002800D0B2E12368DB062CD5002D5FD142
:10096000684B1B689B0503D5A369002B00D1ABE145
:10097000644A536869490B40216A0B4353605368CA
:100980001B021B0AE16909060B435360236A590BDA
:10099000013180231B028B40D16809090F220A40D4
:1009A0005C498A5CD3405C4A13600020FFF744FD39
:1009B000002800D082E123681B077DD56369002BE6
:1009C00067D0504A136D01210B431365FFF768FD93
:1009D00006004C4B1B6D9B076ED4FFF761FD801B1F
:1009E0000228F6D9032069E146494B68484A13407A
:1009F0002269120213434B60ADE7424A136801219A
:100A00008B431360FFF74CFD06003E4B1B685B07F2
:100A1000A1D5FFF745FD801B0228F6D903204DE143
:100A2000A369002B22D0374A116880235B000B4357
:100A30001360FFF735FD0600324B1B689B0506D49B
:100A4000FFF72EFD801B0228F6D9032036E12D4A40
:100A5000536832490B40216A0B43536053681B02B1
:100A60001B0AE16909060B435360A4E7254A136892
:100A70002B490B401360FFF713FD0600214B1B6849
:100A80009B0598D5FFF70CFD801B0228F6D90320A3
:100A900014E11C4A136D01218B431365FFF700FD20
:100AA0000600184B1B6D9B0706D5FFF7F9FC801B52
:100AB0000228F6D9032001E123685B0700D48CE00B
:100AC000104B9B6BDB001BD40E4A916B80235B05A4
:100AD0000B4393630126134B1B68DB0526D5A368E4
:100AE00080225200934235D0002B4BD1054B1A6D1A
:100AF0000B490A401A651A6D0B490A401A652FE026
:100B00000026E8E700100240FFFFFEFFFFFFFBFFAB
:100B1000FFE0FFFF7822000800000020FF1FFFFF1A
:100B2000FFFEFFFF00700040FFFBFFFF694A1168F6
:100B300080235B000B431360FFF7B2FC0700654B9B
:100B40001B68DB05CBD4FFF7ABFCC01B6428F6D9D0
:100B50000320B3E0604A116D80235B000B431365F3
:100B6000A368002B28D0FFF79BFC07005A4B1B6D96
:100B70009B0530D4FFF794FCC01B584B9842F5D925
:100B800003209BE0A022D200934209D0524B1A6D61
:100B900053490A401A651A6D52490A401A65DFE73F
:100BA0004D4B196D013AFF3A0A431A65196D8022BF
:100BB00052000A431A65D3E7FFF772FC0700464B61
:100BC0001B6D9B0507D5FFF76BFCC01B434B984281
:100BD000F5D9032072E0012E1AD0636A002B00D1F0
:100BE00074E00C2D4FD0022B18D03B4A13683E49BD
:100BF0000B401360FFF754FC0400374B1B689B014C
:100C00003FD5FFF74DFC001B0228F6D9032055E025
:100C1000314A936B35490B409363DEE72E4A1368E4
:100C200031490B401360FFF73BFC05002A4B1B6862
:100C30009B0106D5FFF734FC401B0228F6D90320A0
:100C40003CE02549CB682A4A1340A26AE06A024385
:100C5000206B02431343CB600A6880235B04134379
:100C60000B60FFF71DFC04001B4B1B689B0106D4A7
:100C7000FFF716FC001B0228F6D903201EE0002017
:100C80001CE000201AE0144BDA6880235B0213405A
:100C9000A16A8B4201D0012010E0F0239B03134096
:100CA000E16A8B4201D0012008E0C0231B041A40F6
:100CB000236B9A420CD0012000E0012003B0F0BD6C
:100CC0000120FBE70120F9E70120F7E70020F5E725
:100CD0000020F3E70070004000100240881300007D
:100CE000FFFEFFFFFFFBFFFFFFFFFFFEFFFFFFEF2A
:100CF000FFFF02FF70B504000D00002800D1BAE02C
:100D00005F4B1A68012313408B420BD25C490B687E
:100D1000012293432B430B600B681A40AA4201D077
:100D20000120A9E023689B0706D5564AD368F02125
:100D30008B43A1680B43D3602368DB0764D56368EA
:100D4000022B09D0032B29D0012B2DD04D4A12683C
:100D5000920506D401208FE04A4A1268920300D41B
:100D60008BE04849CA68032082431343CB60FFF7F6
:100D700097FB06006368022B1CD0032B28D0012BA5
:100D800034D0404BDB680C221A423DD0FFF788FB81
:100D9000801B3D4B9842F4D903206DE0394A12681C
:100DA0009201DED4012067E0364A12685207D8D497
:100DB000012061E0334BDA680C231340082B23D069
:100DC000FFF76EFB801B304B9842F3D9032053E0B2
:100DD0002C4BDA680C2313400C2B15D0FFF760FB6B
:100DE000801B294B9842F3D9032045E0254BDA6854
:100DF0000C231340042B07D0FFF752FB801B224B20
:100E00009842F3D9032037E01D4B1A6801231340A1
:100E1000AB420BD91A490B68012293432B430B6059
:100E20000B681A40AA4201D0012025E023685B0725
:100E300006D5144AD36815490B40E1680B43D360CB
:100E400023681B0707D50F49CB68114A1340226955
:100E5000D2001343CB60FFF771FC0A4BDA6812092A
:100E60000F2313400B4AD35CD8400B4B1860002073
:100E7000FFF7E2FA00E0012070BD0120FCE7C04668
:100E8000002002400010024088130000FFF8FFFF1E
:100E9000FFC7FFFF7822000800000020014B186800
:100EA0007047C0460000002010B5FFF7F7FF044B65
:100EB000DA68120A07231340024AD35CD84010BDF7
:100EC000001002408822000810B5FFF7E7FF044B2E
:100ED000DA68D20A07231340024AD35CD84010BD17
:100EE000001002408822000870B5040003689B06C9
:100EF0004CD55B4B9B6BDB0000D571E0584A916B86
:100F000080235B050B4393630125564B1B68DB0570
:100F100068D5534B1968C0239B031940626813407E
:100F20008B4206D0C0239B0211001940994200D188
:100F30006DE04B4B1B6DC02189020B4015D00A4060
:100F40009A4212D023689B060FD5454B186D464A2E
:100F500002401E6D8021090331431965196D434E0E
:100F6000314019651A65C30558D46368C0229202DE
:100F700019001140914260D039490B6DC022920294
:100F80006068024013430B65012D60D023689B0706
:100F900006D5334AD36C0C218B43A1680B43D36431
:100FA00023685B0706D52E4AD36C31490B40E168B4
:100FB0000B43D36423681B0706D5294AD36C2D49FC
:100FC0000B4021690B43D36423681B0645D5244A93
:100FD000D36C29490B4061690B43D364002070BD79
:100FE000002592E71F4A116880235B000B431360C2
:100FF000FFF756FA06001B4B1B68DB0500D588E798
:10100000FFF74EFA801B6428F5D90320E7E7144B5D
:101010001B689B0300D48CE70120E0E7FFF740FA50
:1010200006000F4B1B6D9B059FD4FFF739FA801B01
:10103000124B9842F5D90320D1E709490A681048B4
:101040000240C0208003034013430B6094E70A0072
:101050008B6B0C490B40936398E70020BFE7C046B9
:101060000010024000700040FFFFFCFFFFFFF7FF91
:10107000FFF3FFFFFFCFFFFFFFFFF3FF8813000029
:10108000FFFFCFFFFFFFFFEF03688022D2059042F2
:1010900002D00F4A904203D1702293434A6813430F
:1010A0008022D205904202D0094A904203D1094AD7
:1010B0001340CA681343802293430A6913430360B1
:1010C0008B68C3620B688362012343617047C0462B
:1010D00000080140FFFCFFFF30B5036A046A0125E8
:1010E000AC4304628469EF35AC43120122430A2405
:1010F000A34319438261016230BD000030B5036A29
:101100001024A34303628469036A054D2C40120333
:101110002243A024A343090119438261016230BD27
:10112000FF0FFFFF0B0081687022914319430723D3
:10113000194381607047000030B58468034D2C402E
:101140001B021A4311432143816030BDFF00FFFFA2
:1011500070B5041E14D03923C35C002B0AD0392586
:1011600002236355211D2068FFF78EFF012363557D
:10117000002070BD38330022C25400F027FFEEE794
:101180000120F6E70268D36801210B43D3600268AF
:10119000916807230B40062B03D0136801210B43F2
:1011A00013600020704700000268D36801218B4360
:1011B000D3600368196A044A114203D11A680121F5
:1011C0008A431A600020704711110000F0B5C6462E
:1011D00000B504000D00002843D03923C35C002B68
:1011E00039D039260223A355210004C993681E482B
:1011F000034093602068FFF747FF216888688A6989
:101200000F6A2B6818438046184B1340AA691202D4
:10121000A86802431A43164B1A40EB691B02E868A0
:1012200003431A432B691B01286A0003034313433A
:10123000AA2297436A686D692D012A433A434046C2
:10124000886021688B6123681A620123A3550020FE
:1012500004BC9046F0BD38330022C25400F0CEFEEC
:10126000BFE70120F4E7C046F8BFFFFFFCFCFFFF2B
:101270000303FFFF10B504003823C35C012B66D0C5
:1012800038230122C25401330132C25402689368E8
:101290003048034093600B68402B4ED015D9602B2B
:1012A00041D021D9702B2BD080229201934232D190
:1012B000CB684A6889682068FFF73EFF226891681A
:1012C0008023DB010B43936025E0102B07D004D96A
:1012D000202B04D0302B02D01DE0002B1BD1190095
:1012E0002068FFF71FFF16E0502B14D1CA68496829
:1012F0002068FFF7F1FE50212068FFF713FF0AE096
:10130000CB684A6889682068FFF716FF22689368EF
:1013100077210B43936039230122E254013B0022E1
:10132000E254002010BDCA6849682068FFF7E6FE55
:1013300060212068FFF7F6FEEDE7CA68496820687B
:10134000FFF7CAFE40212068FFF7ECFEE3E702202A
:10135000E8E7C0468800FFFF704770477047704756
:1013600010B5040003681A6992070FD5DA6892076E
:101370000CD5032252421A610123037603689B694C
:101380009B0755D0FFF7E9FF0023237623681A69EE
:10139000520712D5DA6852070FD5052252421A6158
:1013A0000223237623689A69C0239B001A4245D002
:1013B0002000FFF7D2FF0023237623681A69120763
:1013C00010D5DA6812070DD5092252421A6104239A
:1013D00023762368DB699B0737D02000FFF7BDFF2A
:1013E0000023237623681A69D20612D5DA68D2065A
:1013F0000FD5112252421A61082323762368DA6935
:10140000C0239B001A4227D02000FFF7A6FF00232D
:10141000237623681A69D20702D5DA68D20722D464
:1014200023681A69520602D5DA68520622D410BD22
:10143000FFF792FF2000FFF791FFA5E72000FFF7DD
:101440008BFF2000FFF78AFFB5E72000FFF784FF3E
:101450002000FFF783FFC3E72000FFF77DFF200098
:10146000FFF77CFFD3E7022252421A61200000F00E
:1014700001FCD5E7412252421A612000FFF76FFFBD
:10148000D5E7F0B53823C35C012B1BD038260123E8
:101490009C46835539270133C355026854689368C5
:1014A0007025AC430D682C438025AB431D004B6871
:1014B0002B435460026893606346C35500238355F1
:1014C0000020F0BD0220FCE7D0B50400016883686D
:1014D0000269134342691343C26913430A68B74858
:1014E000024013430B6022685368B5490B40E16822
:1014F0000B435360A1692268B24B9A4201D0236A20
:1015000019439368B04803400B4393602268AF4B84
:101510009A4212D0AB4B9A4224D01023A9498A4256
:1015200040D080221202E169914276D0082B00D986
:1015300032E19B00A64AD3589F46A64BD96C0C2398
:101540000B40042B0AD005D9082B27D00C2B07D130
:101550000823E3E7002B03D10023DFE70423DDE7C3
:101560001023DBE79B4BDB6CC02109010B40802182
:10157000C9008B420ED009D9802109018B420FD0BE
:10158000C02109018B4207D10823C7E7002B03D1F3
:101590000023C3E70423C1E71023BFE70223BDE70D
:1015A0000223BBE7022B2DD007D9042B30D0082B08
:1015B00000D0F4E08020000207E0002B00D0EEE035
:1015C000FFF772FC002800D1EBE0626853009B1823
:1015D000834200D9E7E01303834200D2E5E0070E1F
:1015E000060250080021801979410023FEF718FEF9
:1015F000794BC218794B9A4200D9D8E02368D86059
:10160000002084E0734B1B68DB0604D47448DCE7DD
:10161000FFF794F8D6E77348D7E7082B62D89B000A
:10162000714AD3589F46FFF73FFC400063685B0850
:10163000C0186168FEF768FD03041B0C00206B49AD
:101640001A00103A8A4200D9B3E00F2219009143E0
:101650005B08083A13400B432268D36057E0FFF75A
:1016600033FC400063685B08C0186168FEF74CFDFE
:1016700003041B0C0020E2E7564B1B68DB060BD56E
:10168000636858085A4B9C4660446168FEF73CFD0D
:1016900003041B0C0020D2E763685808554B9C4696
:1016A00060446168FEF730FD03041B0C0020C6E7B0
:1016B000FFF744F8400063685B08C0186168FEF7F4
:1016C00023FD03041B0C0020B9E76368580880233E
:1016D0005B029C4660446168FEF716FD03041B0C28
:1016E0000020ACE701200023A9E7FFF7DDFB6368DA
:1016F0005B08C0186168FEF707FD03041B0C00209F
:101700003A491A00103A8A4255D82268D360002319
:1017100023666366D0BDFFF7D7FB63685B08C0181C
:101720006168FEF7F1FC03041B0C0020E8E7294B7D
:101730001B68DB060BD5636858082A4B9C4660443F
:101740006168FEF7E1FC03041B0C0020D8E7636826
:101750005808234B9C4660446168FEF7D5FC03049F
:101760001B0C0020CCE7FEF7E9FF63685B08C0189C
:101770006168FEF7C9FC03041B0C0020C0E7636826
:10178000580880231B029C4660446168FEF7BCFC3D
:1017900003041B0C0020B3E701200023B0E7012065
:1017A000B5E70020B3E70120B1E70120AFE7012052
:1017B000ADE70120ABE70120A9E7C046F369FFEFE1
:1017C000FFCFFFFF00480040FFF4FFFF0044004050
:1017D000242200080010024000FDFFFFFFFC0F0064
:1017E0000024F40000093D0048220008EFFF00003B
:1017F00000127A000048E801436ADB0706D5026858
:1018000053682C490B40816A0B435360436A9B0722
:1018100006D50268536828490B40C16A0B435360E0
:10182000436A5B0706D50268536824490B40016B85
:101830000B435360436A1B0706D50268536820496F
:101840000B40416B0B435360436ADB0606D50268CD
:1018500093681C490B40816B0B439360436A9B0662
:1018600006D50268936818490B40C16B0B4393601F
:10187000436A5B060BD50268536814490B40016C40
:101880000B43536080235B03026C9A420AD0436A85
:101890001B0606D5026853680D490B40816C0B434B
:1018A00053607047026853680A490B40416C0B4310
:1018B0005360ECE7FFFFFDFFFFFFFEFFFFFFFBFFB5
:1018C000FF7FFFFFFFEFFFFFFFDFFFFFFFFFEFFFE8
:1018D000FFFFF7FFFFFF9FFFF0B5C64600B506000C
:1018E0000C0017009846069D3368DB6923401B1BDC
:1018F0005A425341BB421CD16B1CF5D0FEF7D0FDC0
:101900004346C01AA84201D8002DEDD132681368B1
:101910000A490B40136032689368A331FF318B434F
:10192000936020237367B36750330022F25403207F
:1019300000E0002004BC9046F0BDC0465FFEFFFF03
:10194000F0B585B004000E0017001D00436F202B7A
:101950005FD1002960D0002A60D080235B018268BB
:101960009A4218D07023E35C012B59D070230122D6
:10197000E2540023E36721336367FEF791FD039090
:101980005023E7520233E75280235B01A2689A4258
:1019900008D0002716E00369002BE3D1CB07E1D57F
:1019A000012037E02369002B21D000270AE03B8883
:1019B0002268DB05DB0D936202375222A35A013BFA
:1019C0009BB2A3525223E35A9BB2002B12D0009534
:1019D000039B002280212000FFF77EFF002821D1F9
:1019E000002EE4D0327823689A620136E5E73700AA
:1019F0000026E7E70095039B002240212000FFF727
:101A00006BFF002810D12023636750330022E2547B
:101A100000E0022005B0F0BD0120FBE70120F9E75E
:101A20000220F7E70320F5E70320F3E730B583B0A2
:101A300004000023C367FEF733FD050023681B681D
:101A40001B070CD423681B685B0715D4202363672E
:101A5000A36750330022E254002003B030BD802140
:101A60000C4B00930300002289032000FFF734FF92
:101A70000028E7D00320F0E78021064B00932B00DD
:101A80000022C9032000FFF727FF0028DED0032033
:101A9000E3E7C046FFFFFF0110B5041E2ED0436FE1
:101AA000002B21D0242363672268136801218B4314
:101AB00013602000FFF708FD012814D0636A002B93
:101AC00018D1226853680E490B405360226893680E
:101AD0002A218B4393602268136829390B431360D2
:101AE0002000FFF7A3FF10BD70330022C25400F0A6
:101AF000B3FAD7E72000FFF77FFEE2E70120F2E725
:101B0000FFB7FFFFF0B589B0264BDA6A0124224304
:101B1000DA62DA6A22400192019ADA6A02252A43DD
:101B2000DA62DB6A2B400293029BA026F6050022B4
:101B3000E0213000FEF7EEFD1E2303931A4B0493C1
:101B4000059503A93000FEF72BFDE02303930494D1
:101B500000270597069503A93000FEF721FD3023E5
:101B600003930497059403A91048FEF719FD00227A
:101B700000210520FEF7A8FC0520FEF7D5FC002279
:101B800000210620FEF7A0FC0620FEF7CDFC002277
:101B900000210720FEF798FC0720FEF7C5FC09B0DE
:101BA000F0BDC0460010024000003110000400509B
:101BB00010B50948094B036096239B01436000233D
:101BC0008360C3600361082242618361C361036271
:101BD0004362FFF761FF10BD640000200044004035
:101BE00030B58DB00F4D104B2B6000246C60AC6095
:101BF0002F23EB602C612E3B0393049405930694F2
:101C00000794089409930A940B9403A92800FFF7FA
:101C1000DDFA0194029401A92800FFF732FC0DB00F
:101C200030BDC046E40000200008014030B587B058
:101C30000E4C8023DB05236000256560A5600C4BFE
:101C4000E36025612000FFF783FA80235B010293A4
:101C500002A92000FFF70EFB20230093019569469F
:101C60002000FFF70EFC07B030BDC0462800002062
:101C7000FF7C000010B502688023DB059A4200D08B
:101C800010BD164C20780130C0B20321FEF7C2FA15
:101C9000C9B22170012911D0002907D0022915D01D
:101CA000A023DB05E02212049A61E9E7A023DB050B
:101CB00020229A61C02212049A61E1E7A023DB0589
:101CC00040229A61A02212049A61D9E7A023DB0581
:101CD00080229A61C022D2039A61D1E720000020BD
:101CE00010B5A023DB051B69034200D1A4E0564BCD
:101CF0005B78002B00D09FE002280CD004282ED067
:101D0000082850D0102872D04F4B01225A704F48EB
:101D1000FFF74AFA96E0A023DB055B699B0610D427
:101D2000A023DB055B695B0612D4A023DB055B699E
:101D30001B06E9D56423012245494648FFF700FE0A
:101D4000E2E76423012244494248FFF7F9FDDBE75B
:101D50006423012241493F48FFF7F2FDD4E7A02365
:101D6000DB055B699B0610D4A023DB055B695B0682
:101D700012D4A023DB055B691B06C5D564230122B1
:101D800037493448FFF7DCFDBEE7642301223549BB
:101D90003048FFF7D5FDB7E76423012232492D48CB
:101DA000FFF7CEFDB0E7A023DB055B699B0610D4EF
:101DB000A023DB055B695B0612D4A023DB055B690E
:101DC0001B06A1D56423012228492248FFF7B8FD4C
:101DD0009AE76423012226491E48FFF7B1FD93E7E5
:101DE0006423012223491B48FFF7AAFD8CE7A023A7
:101DF000DB055B699B0611D4A023DB055B695B06F1
:101E000013D4A023DB055B691B0600D47CE76423A5
:101E1000012219490F48FFF793FD75E7642301225A
:101E200016490C48FFF78CFD6EE764230122144924
:101E30000848FFF785FD67E70448FFF7A3F9024B61
:101E400000225A7010BDC04620000020280000204B
:101E500098220008640000209022000894220008C4
:101E6000A42200089C220008A0220008B02200083A
:101E7000A8220008AC220008BC220008B4220008F6
:101E8000B822000830B599B01F490B681F4A1A40A4
:101E900080231B0113430B6001230B93A023DB0260
:101EA0000C930225149580235B021593A0235B03FA
:101EB00016938023DB0317930BA8FEF795FC0F23E3
:101EC00006930C3B07930024089409940A9401217B
:101ED00006A8FEF70FFF009502946846FFF704F886
:101EE000FEF7DCFFFA218900FEF70EF9FEF726FB6C
:101EF0000420FEF73FFB0120002200214042FEF7B4
:101F0000E3FA19B030BDC04600700040FFE7FFFFA4
:101F100070B5FEF7A9FAFFF7B5FFFFF7F3FDFFF77E
:101F200047FEFFF75DFEFFF781FEA023DB05E02201
:101F300012049A611048FFF725F905E06423012295
:101F40000E490F48FFF7FCFC0E4D2C69E4B201204E
:101F5000FEF7ACFA2B699B0601D4A306EED4094B1D
:101F60001B69DB06F0D4E306EED5642301220649A3
:101F70000348FFF7E5FCE7E728000020C02200083F
:101F80006400002000040050C422000810B50E4B6D
:101F90005A6B01210A435A63996B802252050A4306
:101FA0009A630520002200214042FEF78DFA0220AC
:101FB000002200214042FEF787FA01200022002182
:101FC0004042FEF781FA10BD0010024010B50268D1
:101FD0008023DB059A4200D010BD074A936B012194
:101FE0000B439363002200210F20FEF76DFA0F20B0
:101FF000FEF79AFAF0E7C0460010024070B586B0CE
:102000000268134B9A4201D006B070BD114A536B5F
:1020100004210B43536380239B0001930226029605
:10202000002403940494FC3BFF3B0593A025ED059D
:1020300001A92800FEF7B4FA8023DB000193029681
:1020400003940494059401A92800FEF7A9FADBE79C
:10205000000801400010024000B587B002680C4B38
:102060009A4201D007B000BD0A4A916B80239B02BF
:102070000B439363C0230193BE3B0293002303935E
:1020800003220492059301A90348FEF789FAE9E7C0
:102090000044004000100240000400507047FEE77A
:1020A0007047704710B5FEF7F3F9FEF774FA10BDEC
:1020B00010B50220FEF734FB10BD10B50420FEF76A
:1020C0002FFB0820FEF72CFB10BD10B51020FEF7EB
:1020D00027FB10BD10B50248FFF742F910BDC046FE
:1020E00028000020104B1968802252000A431A6011
:1020F000DA680E490A40DA601A680D490A401A6027
:102100009A6801218A439A601A680A490A401A604B
:10211000DA6809490A40DA6000221A61074B802216
:1021200012059A607047C046001002400C40FF88BC
:10213000F6FFF6FEFFFFFBFFFFFF02FF00ED00E0F2
:102140001348854613480168090E134A914205D188
:10215000124813490160134813490160002103E04C
:10216000124B5B58435004311148124B42189A42AB
:10217000F6D3114A02E00023136004320F4B9A4257
:10218000F9D3FFF7AFFF00F01DF8FFF7C1FEFEE740
:1021900000080020040000001F000000341002406E
:1021A000010000000000014000000000D8220008EB
:1021B0000000002004000020040000202001002076
:1021C000FEE7000070B500260C4D0D4C641BA410FA
:1021D000A64209D1002600F019F80A4D0A4C641BEA
:1021E000A410A64205D170BDB300EB589847013644
:1021F000EEE7B300EB5898470136F2E7D02200082B
:10220000D0220008D0220008D4220008F8B5C04629
:10221000F8BC08BC9E467047F8B5C046F8BC08BC80
:042220009E4670471F
:10222400EA160008161700082E1700089817000869
:1022340066170008981700089817000898170008F0
:102244007E170008261600085E1600087816000897
:10225400E4160008B0160008E4160008E4160008A6
:10226400E4160008CA160008030406080C10182017
:102274003000000000000000000000000102030420
:1022840006070809000000000102030437000000EB
:102294003800000039000000340000003500000060
:1022A400360000003100000032000000330000005E
:1022B4002A00000030000000230000004C00000051
:0422C40052000000C4
:0822C80098DFFF7F0100000018
:0422D000E900000819
:0422D400C10000083D
:0422D80000002000E2
:04000005080021418D
:00000001FF
