:020000040800F2
:10000000000800204D1D00088D1C0008911C0008F0
:1000100000000000000000000000000000000000E0
:10002000000000000000000000000000951C000817
:100030000000000000000000991C00089D1C000842
:10004000CD1D0008CD1D0008CD1D0008CD1D0008E8
:10005000CD1D0008CD1D0008CD1D0008A51C000801
:1000600000000000CD1D0008CD1D0008CD1D0008BA
:10007000CD1D0008CD1D000800000000E11C000897
:100080000000000000000000000000000000000070
:10009000CD1D00080000000000000000CD1D00087C
:1000A00000000000CD1D000800000000000000005E
:1000B000CD1D0008CD1D000800000000000000005C
:1000C00010B5064C2378002B07D1054B002B02D02E
:1000D000044800E000BF0123237010BD040000208D
:1000E00000000000281E0008044B10B5002B03D0B0
:1000F0000349044800E000BF10BDC04600000000F6
:1001000008000020281E0008002243088B4274D3F8
:1001100003098B425FD3030A8B4244D3030B8B4208
:1001200028D3030C8B420DD3FF22090212BA030C11
:100130008B4202D31212090265D0030B8B4219D3F2
:1001400000E0090AC30B8B4201D3CB03C01A524112
:10015000830B8B4201D38B03C01A5241430B8B425A
:1001600001D34B03C01A5241030B8B4201D30B0343
:10017000C01A5241C30A8B4201D3CB02C01A52416A
:10018000830A8B4201D38B02C01A5241430A8B422D
:1001900001D34B02C01A5241030A8B4201D30B0216
:1001A000C01A5241CDD2C3098B4201D3CB01C01A30
:1001B000524183098B4201D38B01C01A524143093A
:1001C0008B4201D34B01C01A524103098B4201D328
:1001D0000B01C01A5241C3088B4201D3CB00C01A95
:1001E000524183088B4201D38B00C01A524143080D
:1001F0008B4201D34B00C01A5241411A00D2014632
:10020000524110467047FFE701B5002000F006F8A4
:1002100002BDC0460029F7D076E770477047C04658
:10022000002B11D1002A0FD1002900D1002802D0C3
:100230000021C943081C07B4024802A140180290DB
:1002400003BDC046D9FFFFFF03B4684601B502985D
:1002500000F006F8019B9E4602B00CBC7047C046F9
:10026000F0B54F464646D646C0B5040082B00D00F4
:10027000914698468B422FD82CD04146484600F0F4
:10028000B1F829000600200000F0ACF8331A9C46B3
:10029000203B9A4600D576E04B46524693401F00DD
:1002A0004B46624693401E00AF4228D825D05346A5
:1002B000A41BBD41002B00DA7BE00022002300924A
:1002C00001930123524693400193012362469340D8
:1002D000009318E08242D0D90022002300920193BB
:1002E0000A9B002B01D01C605D600098019902B050
:1002F0001CBC90469946A246F0BDA342D7D9002225
:100300000023009201936346002BE9D0FB07984637
:10031000414672080A437B0866460EE0AB4201D1B3
:10032000A2420CD8A41A9D41012024196D4100213C
:10033000013E24184D41002E06D0AB42EED9013EBD
:1003400024196D41002EF8D10098019953460019E7
:100350006941002B23DB2B005246D3402A00644620
:10036000E2401C0053461500002B2DDB26005746AB
:10037000BE40330026006746BE403200801A9941D5
:1003800000900191ACE7624620239B1A4A46DA406E
:100390006146130042468A4017001F4380E76246C9
:1003A00020239B1A2A0066469A402300F3401343F9
:1003B000D4E76246202300219B1A0022009101927B
:1003C0000122DA40019280E72023624626009B1A30
:1003D000DE402F00B0466646B74046463B003343FA
:1003E000C8E7C04610B5002903D100F007F8203057
:1003F00002E0081C00F002F810BDC0461C210123D9
:100400001B04984201D3000C10391B0A984201D3F7
:10041000000A08391B09984201D30009043902A2D5
:10042000105C40187047C04604030202010101013C
:100430000000000000000000FA210A4B10B58900FE
:1004400004001868FFF760FE00F066F8012300283A
:1004500005D100222100013800F028F800231800FF
:1004600010BDC046000000204021084A10B51368A6
:1004700000200B431360FFF7DFFF041E02D00124AE
:10048000200010BD01F0B0FBFAE7C046002002409A
:10049000024A1368013313607047C04624000020ED
:1004A000014B18687047C04624000020FF22032338
:1004B00030B51400C5B22B40DB009C4089010A40D6
:1004C000E4439A4000280BDB0C4B80089C46C02379
:1004D000800060449B00C1580C402243C25030BD94
:1004E0000F2307492B408C46083B9B089B00634425
:1004F000D9690C402243DA61F1E7C04600E100E02F
:1005000000ED00E01F2318401E3B8340014A1360AA
:100510007047C04600E100E00A4A431E01209342B2
:100520000ED8C021084A09485360036A09061B0215
:100530001B0A0B4303620023002093600733136000
:100540007047C046FFFFFF0010E000E000ED00E054
:10055000F0B5DE4657464E464546E0B50B6883B0DB
:100560009C46002B79D001239A46614B0022984685
:1005700063460191009354469440009D254068D005
:10058000019B102759680B00BB439946022B6BD087
:1005900053009C4603236646B34001267642B34689
:1005A000D9444E46DB43012E00D87DE004686746FF
:1005B0001C40A14603240C40BC404F463C436746C8
:1005C0000460C4682340019CA468BC402343C3600A
:1005D00080235B0519423CD056460327454C174003
:1005E000636B33436363444CBE00A4460F279308F8
:1005F0009B006344B740B446A0269C68F605BC4304
:10060000B0420BD03D4EB0426CD03D4EB1460226BA
:10061000484500D006266746BE4034439C604346AA
:10062000EC431B68CE035BD42340464633607368BB
:100630008E0353D4234046467360B368CE024BD436
:1006400023404646B360F368890243D423404146C1
:10065000CB60009B0132D3408DD103B03CBC9046AF
:100660009946A246AB46F0BDD3089B00C3181E6A4C
:10067000B146072637001740BE000F27B740BB46DC
:10068000B4464F465E46B743019EB9463769664653
:10069000B740BC464F46664637431F6253009C46F0
:1006A00003236646B340DB438768019E1F40BB4679
:1006B000F7686646B740B9465F464E46374387609F
:1006C000466837005646A7430C09344094403C43E3
:1006D00044606BE72B43BAE72B43B2E72B43AAE70F
:1006E0002B43A2E756466746BE40344396E7C046D2
:1006F00000040140001002400000014000040050CE
:1007000000080050002A01D1816270478161FCE736
:10071000044B10B55A69104202D0586101F042F9F9
:1007200010BDC046000401400C23244A10B5D16816
:100730000B40082B2BD00C2B12D0042B07D0802081
:10074000536800021B045B0F0133984010BD106812
:100750001B4BC006C01718401A4B9C466044F5E777
:100760008B0219481B0FC45C0902D368890F013141
:10077000DB030ED41368DB0615D563011B1B980140
:10078000C01AC00000190002FFF7BEFCDEE70F48E8
:10079000DCE76001001B8301181AC0000019000289
:1007A000FFF7B2FCD2E763011B1B9801C01AC0001F
:1007B00000198002FFF7A8FCC8E7C04600100240FD
:1007C00000E548FF0024F400981E000800093D00E1
:1007D000F0B5D6464F464646C0B5040082B0002864
:1007E00000D123E10C258026B94B7602DA6815404A
:1007F000DA6803681640DA0733D5082D00D145E1E1
:100800000C2D00D13FE1802061684002814200D17F
:1008100046E1A022D202914200D13BE2AC4FAD4B67
:100820003A681A403A603B68AB4A03400193019B27
:100830003B6813403B60002900D035E1FFF730FEF4
:1008400080239B028146984606E0FFF729FE4B462F
:10085000C01A642800D9A2E142463B681342F4D191
:1008600023689A0700D5ABE0DA062AD5002D00D11F
:10087000D4E0A369964E002B00D1BCE180233268FE
:100880005B0013433360FFF70BFE80278046BF00F9
:1008900006E0FFF705FE4346C01A022800D97EE1B4
:1008A00033683B42F5D073688C4A1340226A134385
:1008B00073607268E36912021B06120A13437360C5
:1008C00023681A0719D56369814E002B00D17DE199
:1008D0000122336D13433365FFF7E2FD0223070066
:1008E000984605E0FFF7DCFDC01B022800D956E161
:1008F0004246336D1A42F5D023685B0741D5802309
:100900000020734A5B05916B8246194204D1916BBA
:100910000B43936301239A468027714E7F0033680F
:100920003B4200D12BE18022A3685200934200D1C8
:10093000BAE1002B00D107E1A021C9008B4200D110
:10094000D1E1634B67491A6D0A401A651A6D664911
:100950000A401A65FFF7A4FD8026644B81465C4F70
:10096000B600984606E0FFF79BFD4B46C01A40458F
:1009700000D914E13B6D3342F5D05346012B00D131
:1009800082E1636A002B19D00C2D00D191E1022B7A
:1009900000D146E14E4C564A23688025134023601F
:1009A000FFF77EFDAD04060005E0FFF779FD801B33
:1009B000022800D9F3E023682B42F6D1002036E06C
:1009C0002022E3681A4204D041489343016811434E
:1009D0000160042D33D00C2D2FD03D4E002B00D1C3
:1009E000DFE00921326804278A4313433360FFF7AD
:1009F00057FD804606E0FFF753FD4346C01A022824
:100A000000D9CCE033681F42F5D0726823693949B8
:100A10001B020A4013437360236825E72C4B1B68B5
:100A20009B0500D46CE0A369002B69D1012002B0C2
:100A30001CBC90469946A246F0BD002ECDD1244A5A
:100A40001268520701D5002BF0D0214E226971683F
:100A50002848120201400A430921726032688A4321
:100A600013433360FFF760FEF368234A1B061B0F36
:100A7000D35CD840214B18600020FFF7DDFC002834
:100A8000D5D12368F0E6002E00D1BCE6104A1268EA
:100A9000920300D4E5E66268002A00D0E1E6C5E7EB
:100AA0000B4A13680B431360FFF7FAFC8027084BCF
:100AB00081469846BF0205E0FFF7F2FC4B46C01A9C
:100AC00064286CD843461B683B42F5D02368C8E6CF
:100AD00000100240FFFFFEFFFFFFFBFFFF1FFFFFB5
:100AE00000700040FFFEFFFFFFFBFFFF88130000C8
:100AF000FFFFFFFEFFE0FFFFA41E00080000002034
:100B00007E4A7F485168236A01401943516050680A
:100B1000E1690002000A090601435160D1688022A0
:100B20005B0B013312029A4013000A067549120F3B
:100B30008A5C0020D340744A1360FFF77DFC0028D4
:100B400000D074E72368BCE66C4E704A336D802792
:100B500013403365336D6E4ABF0013403365FFF7B2
:100B60009FFC6C4B8146984605E0FFF799FC4B468D
:100B7000C01A404513D8336D3B42F6D1FDE63368C9
:100B80003B433360FFF78CFC804633683B4200D028
:100B9000C9E6FFF785FC4346C01A6428F5D903204F
:100BA00045E70122336893433360FFF779FC042360
:100BB0000700984604E0FFF773FCC01B0228EED83C
:100BC000424633681A42F6D123684DE60122336D5E
:100BD00093433365FFF764FC02230700984604E063
:100BE000FFF75EFCC01B0228D9D84246336D1A427B
:100BF000F6D1236881E63368444A13403360FFF737
:100C00004FFC80239B000700984604E0FFF748FC58
:100C1000C01B0228C3D8424633681342F6D123686A
:100C20004FE6364D3C4A2B68802613402B60FFF779
:100C300037FCB604070004E0FFF732FCC01B0228B3
:100C4000ADD82B683342F7D1E16AA36AEA680B4357
:100C500032490A401343226B80241343EB60802304
:100C60002A685B0413432B60FFF71AFC234D060030
:100C7000A40404E0FFF714FC801B02288FD82B6823
:100C80002342F7D00020D2E61C4A2549936B0B4043
:100C9000936376E68023194ADB0211680B431360E5
:100CA000136803431360FFE6144A116D0B43136589
:100CB00050E6124BA16ADA6880235B0213400120E0
:100CC0008B4200D0B3E6F023E16A9B0313408B42D2
:100CD00000D0ACE6C02000040240206B101A421E77
:100CE0009041C0B2A3E6054B0139186DFF390143AD
:100CF0001965196D0A431A652CE6C04600100240BA
:100D0000FF1FFFFFA41E000800000020FFFEFFFFE2
:100D1000FFFBFFFF88130000FFFFFFFEFFFF02FF46
:100D2000FFFFFFEFF8B5CE464746040080B50D0043
:100D300000280DD0012358490A681A40AA420CD253
:100D40000A689A432A430A600A681340AB4204D0F7
:100D500001200CBC90469946F8BD23689A0706D539
:100D6000F0204E49CA688243A0680243CA60DB078C
:100D700028D54A4A63681268022B52D0032B53D0FD
:100D8000012B76D09205E3D50321444EF2688A43C5
:100D90001343F360FFF784FB63680700022B58D00E
:100DA000032B69D0012B42D00C2398463C4B99462B
:100DB00004E0FFF775FBC01B484548D84246F3687E
:100DC0001A42F6D10121344A13680B40AB4205D9CF
:100DD00013688B43136013681942B9D123685A070B
:100DE00006D52E492F48CA680240E0680243CA600F
:100DF0001B0707D529492369CA682B48DB00024035
:100E00001343CB60FFF790FC244B284ADB681B069A
:100E10001B0FD35CD840264B18600020FFF70CFB5B
:100E200097E79203B0D493E79201ADD490E70B33E8
:100E300098461B4B994604E0FFF732FBC01B484520
:100E400005D84246F3681340042BF5D1BAE70320D6
:100E50007FE70A339846124B994604E0FFF720FBE0
:100E6000C01B4845F3D84246F3681340082BF5D120
:100E7000A8E7520788D46BE709339846084B994690
:100E800004E0FFF70DFBC01B4845E0D84246F3687D
:100E900013400C2BF5D195E70020024000100240D2
:100EA00088130000FFF8FFFFFFC7FFFFA41E000824
:100EB00000000020044B054ADB685B055B0FD35C38
:100EC000034A1068D840704700100240B41E000862
:100ED00000000020044B054ADB689B045B0FD35CD9
:100EE000034A1068D840704700100240B41E000842
:100EF00000000020F8B5CE464746036880B50400E0
:100F00009A062ED5802300205C4A5B05916B8046B3
:100F1000194204D1916B0B439363012398468026B9
:100F2000574D76002B68334244D06568C020C021FD
:100F30002F002A00514E80033368890207400A407F
:100F400003409F4256D08A424AD0336D194000D0A8
:100F50008FE04A490B6D1A4343460A65012B39D08D
:100F600023689A0706D50C204449CA6C8243A068BE
:100F70000243CA645A0706D540494248CA6C024037
:100F8000E0680243CA641A0706D53C493E48CA6C69
:100F9000024020690243CA6400201B0606D5374A76
:100FA0003A49D36C0B4061690B43D3640CBC904647
:100FB0009946F8BD2B6833432B60FFF771FA0700A1
:100FC00004E0FFF76DFAC01B642850D82B68334249
:100FD000F7D0AAE78B6B2E4A13408B632368C0E7D8
:100FE000336801209B03E1D4336D134036D0934224
:100FF00005D130E0336D194028D0914226D02368C6
:101000009B0623D580211D4E0903306D376D214B82
:1010100039433165316D204F0340394031653365C7
:10102000C30513D5FFF73CFA80251C4B0700AD0024
:10103000994604E0FFF734FAC01B484517D8336DD2
:101040002B42F7D0C022656892022A40C0239B023F
:101050009A4200D07DE7C027BF032F40074A1049BE
:1010600013680B401F431760C022920271E70320F0
:101070009CE7914200D16CE7C1E7C04600100240F6
:1010800000700040FFF3FFFFFFCFFFFFFFFFF3FF04
:10109000FFFFFFEFFFFFFCFFFFFFF7FF88130000DC
:1010A000FFFFCFFF80220368D20590420ED00C4A8A
:1010B00090420BD0802293430A69134303608B68EC
:1010C000C3620B68836201234361704770229343BC
:1010D0004A681343034A1340CA681343EAE7C04609
:1010E00000080140FFFCFFFF70B5041E14D0392337
:1010F000C35CDBB2002B0AD002233925206863557C
:10110000211DFFF7CFFF01230020635570BD38225A
:10111000835400F077FDEFE70120F7E70121036832
:10112000DA680A43DA60072298680240062A02D089
:101130001A680A431A6000207047C04601210368FC
:10114000DA688A43DA60186A034A104202D11A68E0
:101150008A431A600020704711110000382370B5CF
:10116000C25C012A58D001240222C4540133C25463
:1011700003684B4D9A682A409A600A68402A00D159
:1011800074E04BD9602A2ED057D9702A1BD0802406
:10119000A401A2420FD19A68424C4D6814408A685B
:1011A000C9682A4309020A4322439A608022996847
:1011B000D2010A439A6039230122C2540022013B22
:1011C000C254002070BD9A68364C4D6814408A683D
:1011D000C9682A4309020A43772122439A609A6820
:1011E0000A439A60E7E710251C6A4A68AC43C9685D
:1011F0001C629D692C4E090335402943A0251C6AB9
:1012000099617021AC43120122431A629A688A43A1
:1012100009390A439A60CEE70220D3E7102A04D0A6
:101220003BD9202A01D0302AC5D170249968A14326
:10123000693C22430A439A60BDE7502ABBD14D68FE
:10124000CA68196A1E6A1201A6431E62F0269C69CA
:10125000B44322430A24A14329439A6119627021AD
:101260009A688A4319390A439A60A4E74D68CA68A4
:10127000196A1E6A1201A6431E62F0269C69B443D5
:1012800022430A24A14329439A61196270219A6872
:101290008A4329390A439A608DE7002AC5D08AE734
:1012A0008800FFFFFF00FFFFFF0FFFFF7047C046F2
:1012B0007047C0467047C0467047C0460222036868
:1012C00010B5196904000A4202D0D9680A4254D103
:1012D000042219690A4202D0D9680A423AD1082286
:1012E00019690A4202D0D9680A4225D11022196927
:1012F0000A4202D0D9680A420ED1012219690A4273
:1013000002D0D9680A424ED1402219690A4202D05D
:10131000D9680A4241D110BD213A1A6119322276A8
:10132000DA69C0239B0020001A4243D0FFF7C0FFB8
:10133000002323762368E0E7113A1A61DB690D3256
:10134000227620009B0741D0FFF7B2FF00232376CF
:101350002368CBE7093A1A61073222769A69C023DB
:101360009B0020001A422ED1FFF7A0FF2000FFF7BC
:10137000A1FF002323762368B1E7053A1A619B6930
:10138000043202769B071BD1FFF790FF2000FFF786
:1013900091FF0023237623689AE7813A1A6120009F
:1013A000FFF78AFFB7E7033A1A61200000F0D2FA8C
:1013B0002368A9E7FFF77AFF2000FFF77BFFB7E775
:1013C000FFF776FFE5E7FFF773FFD2E7FFF76EFF62
:1013D0002000FFF76FFFB9E7F0B53825435D012B1B
:1013E00015D0392602237027046883556268A368E4
:1013F000BA430F6849683A438027BB430B43626096
:10140000A36001238355002343550020F0BD022033
:10141000FCE7C046F8B504002569A36802682B43C1
:101420006569C1692B4310687A4D0B43284003431B
:101430001360536878480340E0680343774853607B
:10144000A36982420ED0256A90682B43744D2840D0
:1014500003439360734B9A4235D0012000232366E7
:101460006366F8BD91686E4801400B43C0219360EC
:1014700080226D480901C36CD2000B40934278D0A2
:1014800032D980221201934277D08B42E5D180235A
:101490001B026268510089189942DED811039942F3
:1014A000DBD300275608190E180280197941002352
:1014B000FEF7B6FE5D4BC2185D4B9A42CDD823684D
:1014C000D8600020CAE7584BDA6C0C231340594A05
:1014D000D35C80221202914244D0082B00D993E0C1
:1014E000554A9B00D3589F46002BB6D1FFF7E2FC2C
:1014F00003000020002BCCD1B0E7FFF715F963689B
:101500005B0818186168FEF7FFFD030400201B0C40
:101510001A004A49103A8A429FD82268D3609DE750
:10152000FFF7D8FC63685B081818EBE76368580896
:1015300080231B029C466044E4E7FFF7BBFC636822
:101540005B081818DEE7384B61681B684808DB0643
:101550001CD43B4B9C466044FEF7D6FD03041B0C99
:101560000020D5E7082B00D977E7364A9B00D358EF
:101570009F46FFF7D9F80300BBE7314A036894465A
:10158000DB063148DB170340634482E72F4BE1E77A
:10159000FFF7CAF8636840005B08C0186168FEF78F
:1015A000B3FD0004000C0300244A103B934200D911
:1015B00053E70F2302009A43130000072268400FED
:1015C0001843D060002049E7FFF784FCE2E7164BA0
:1015D00061681B684808DB0619D51D4B9C466044B2
:1015E000FEF792FD0004000CDDE7FFF763FCD1E796
:1015F00063686168580880235B029C466044FEF77C
:1016000083FD0004000CCEE70120002380E7114B8E
:10161000E4E7C046F369FFEFFFCFFFFF004800405B
:10162000FFF4FFFF004400400010024000FDFFFFF8
:10163000FFFC0F00881E0008401E0008EFFF00009E
:101640000024F400641E000800E548FF00093D0086
:1016500000127A000048E801436A30B5DA0706D57F
:101660000168284C4A682240846A22434A609A07EB
:1016700006D50168244C4A682240C46A22434A6065
:101680005A0706D50168214C4A682240046B224360
:101690004A601A0706D501681D4C4A682240446B0F
:1016A00022434A60DA0606D501681A4C8A6822404D
:1016B000846B22438A609A0606D50168164C8A68B4
:1016C0002240C46B22438A605A060AD50168134D32
:1016D0004A68046C2A4022434A60802252039442A2
:1016E00009D01B0606D502680D4953680B40816C72
:1016F0000B43536030BD4A680A4C2240446C22437D
:101700004A60EEE7FFFFFDFFFFFFFEFFFFFFFBFF6D
:10171000FF7FFFFFFFEFFFFFFFDFFFFFFFFFEFFF99
:10172000FFFFF7FFFFFF9FFFF0B5C64607000C0065
:101730001600984600B5069D3A6801E06B1C0AD178
:10174000D36923401B1B59424B41B342F6D00020C2
:1017500004BC9046F0BDFEF7A3FE4346C01AA84263
:1017600001D8002DE8D13B6808491A6803200A40D7
:101770001A609A68A331FF318A439A6020230022BD
:101780007B67BB675033FA54E2E7C0465FFEFFFF5A
:10179000F0B54746CE4680B51F00436F040083B0C6
:1017A0000D0016000220202B47D100294AD0013815
:1017B000002A42D08023A2685B019A4244D0702361
:1017C000E25C012A38D00122E2540023E36721338E
:1017D0006367FEF765FE50230022E6520233E652AD
:1017E00080239146A26880465B019A4242D05223F0
:1017F000E35A002B2ED0522609E02A7801359A624E
:10180000A35B013B9BB2A353A35B002B22D00097A9
:101810004346002280212000FFF786FF002822D1C6
:101820002368002DE9D14A461288D205D20D9A626A
:1018300002239C46E144E3E7022003B00CBC90463F
:101840009946F0BD0120F8E72369002BB7D101428A
:10185000B5D0F2E700974346002240212000FFF771
:1018600063FF002801D00320E7E72023636750339C
:10187000E054E2E72369002BB9D1A9460025B6E779
:10188000002330B50400C36783B0FEF709FE236868
:1018900005001A6812070BD41B685B0717D42023B6
:1018A000002200206367A3675033E25403B030BDC9
:1018B00080210D4B00220093890303002000FFF7D5
:1018C00033FF00280ED123681B685B07E7D5802112
:1018D000054B00220093C9032B002000FFF724FFD3
:1018E0000028DCD00320E1E7FFFFFF0110B5041E54
:1018F00027D0436F002B1FD0242301212268636768
:10190000136820008B431360FFF784FD012818D073
:10191000636A002B17D123680D495A6820000A40DA
:101920002A215A609A688A439A601A6829390A43B8
:101930001A60FFF7A5FF10BD7022835400F07AF9FA
:10194000DAE70120F7E72000FFF786FEE3E7C0466D
:10195000FFB7FFFF8023026810B5DB059A4200D075
:1019600010BD0F4C032120780130C0B2FEF752FCAD
:10197000A023C9B22170DB05802201290BD00229E6
:1019800004D112039A6106229A61E9E792029A61F0
:101990000C229A61E4E7D2029A610A229A61DFE797
:1019A00020000020A022D205136910B559424B41F6
:1019B0001C4C18421FD06378002B1CD1102820D05B
:1019C00020281ED040281CD080281AD080235B00FD
:1019D000984216D080239B00984212D08023DB00CF
:1019E000984217D001280FD1142301220E490F4825
:1019F000FFF7CEFE08E00E48FFF790FB0023637070
:101A000010BD536953695369012309486370FFF797
:101A100095FBF5E71423012206490448FFF7B8FEB9
:101A2000F2E7C04620000020C01E0008640000202D
:101A300028000020BC1E000830B599B01C220021EF
:101A40000DA800F0E9F914220021684600F0E4F93D
:101A50001822002105A800F0DFF91749174A0B6882
:101A600002251A4080231B0113430B6001230B93B3
:101A7000A023DB020C9380235B021593A0235B035E
:101A8000169380230BA8DB0317931495FEF7A0FE93
:101A90000F230024009301210C3B6846019302941C
:101AA00003940494FFF73EF905A805950794FFF702
:101AB00021FA19B030BDC04600700040FFE7FFFFBB
:101AC000F0B501248BB0FEF7CFFCFFF7B5FF142271
:101AD000002105A800F0A0F93C4BA026DA6AF60523
:101AE0002243DA62DA6A300022400192019A02222D
:101AF000D96A0E271143D962DB6A0E211A4002927D
:101B00000122029BFEF7FEFD03230694002405A993
:101B10003000089305970794FEF71AFDFC239B00FD
:101B200005932B4B05A9300006930794FEF710FD93
:101B3000C0231B010593274B05A93000069307948A
:101B4000FEF706FD002200210720FEF7AFFC07206C
:101B5000FEF7D8FC2048214B8460036096239B014C
:101B600043600823C460436104618461C46104620A
:101B70004462FFF7BBFE1022002105A800F04CF9DB
:101B80000822002103A800F047F98023144DDB054B
:101B90002B60144B2800EB606C60AC602C616C61B6
:101BA000FFF7A2FA802305A95B0128000593FFF740
:101BB000D5FA202303A9280003930494FFF70CFC13
:101BC000B7612800FFF7AAFAFEE7C04600100240FE
:101BD000000031100000211064000020004400408B
:101BE00028000020FF7C00000121054B5A6B0A43AE
:101BF0005A638022996B52050A439A637047C04624
:101C0000001002408023026810B5DB059A4200D024
:101C100010BD0121064A0F20936B0B4393630021F3
:101C20000022FEF743FC0F20FEF76CFCF0E7C046F5
:101C30000010024010B5040086B01422002101A853
:101C400000F0EAF80E4B22689A4201D006B010BDAF
:101C500080220C4B9202996B0B480A439A63022232
:101C6000D96A1143D962DB6A01A913400093009B32
:101C7000C0230193BD3B02920493FEF769FCE5E7A4
:101C80000044004000100240000400507047C0466D
:101C9000FEE7C0467047C0467047C04610B5FEF725
:101CA000F7FB10BD10B51020FEF732FD2020FEF727
:101CB0002FFD4020FEF72CFD8020FEF729FD80201F
:101CC0004000FEF725FD80208000FEF721FD8020EA
:101CD000C000FEF71DFD80200001FEF719FD10BDBC
:101CE00010B50248FFF7EAFA10BDC04628000020F0
:101CF0008022104B520019680A431A60DA680E49B4
:101D00000A40DA601A680D490A4001211A609A688F
:101D10008A439A601A680A490A401A60DA680949CF
:101D20000A40DA6000221A618022074B12059A608D
:101D30007047C046001002400C40FF88F6FFF6FED8
:101D4000FFFFFBFFFFFF02FF00ED00E013488546A9
:101D500013480168090E134A914205D112481349EC
:101D60000160134813490160002103E0124B5B58E6
:101D7000435004311148124B42189A42F6D3114A8B
:101D800002E00023136004320F4B9A42F9D3FFF7AD
:101D9000AFFF00F01DF8FFF793FEFEE700080020FC
:101DA000040000001F000000341002400100000089
:101DB0000000014000000000D41E000800000020C8
:101DC0000400002004000020E4000020FEE70000E2
:101DD00070B500260C4D0D4C641BA410A64209D111
:101DE000002600F021F80A4D0A4C641BA410A642FC
:101DF00005D170BDB300EB5898470136EEE7B3004C
:101E0000EB5898470136F2E7CC1E0008CC1E0008BC
:101E1000CC1E0008D01E000803001218934200D107
:101E2000704719700133F9E7F8B5C046F8BC08BC33
:101E30009E467047F8B5C046F8BC08BC9E46704741
:101E40003A15000820150008461500080816000875
:101E5000FA140008081600080816000808160008FA
:101E60002C150008EA150008C8150008CE15000852
:101E70005A140008901500085A1400085A14000853
:101E80005A140008F015000800101010041010106B
:101E90000210101008000000030406080C1018209F
:101EA00030000000000000000000000001020304F8
:101EB00006070809000000000102030443000000B7
:041EC00044000000DA
:081EC4009CE3FF7F0100000018
:041ECC00E900000821
:041ED000C100000845
:041ED40000002000EA
:0400000508001D4D85
:00000001FF
